:040000000C942F002D
:100004000C9400000C9400000C9400000C9400006C
:100014000C9400000C9400000C9400000C9400005C
:100024000C9400000C9400000C9400000C9400004C
:100034000C9400000C9400000C9400000C9400003C
:100044000C9400000C9400000C9400000C9400002C
:1000540000000200040054000000F894EE27ECBBFA
:10006400F1E0FBBFEBBFE5BF8DE0A2E0BB27ED9362
:100074008A95E9F780E094E0A0E6ED930197E9F72B
:10008400E6E5F0E085919591009761F0A591B59131
:1000940005901590BF01F00105900D920197E1F7CD
:1000A400FB01F0CFEFE5EDBFE4E0EEBFC0E6D1E049
:1000B4000C948300BA93AA93E4E6F0E0E415F50502
:1000C400A4F42297AA81BB8183D0E883F983AA810F
:1000D400BB8183D05F01A881B9817FD04F01A88102
:1000E400B98176D03F0122960AC0A881B98170D027
:1000F4003F01A881B98171D04F01AA24BB24229663
:100104000895E0E0EABBEBBBE7BBE8BBEFEFE4BB81
:10011400E0E0E5BBEFEFE1BBE0E0E2BBE3BFE2BF61
:10012400ECBFEFBDEEBDEDBDECBDE7BDE6BDEBBD87
:10013400EABDE9BDE8BDE2BDE5BDE4BDE3BDE9BF9F
:10014400E5BFE4BFEAB9E0E8E8B9E0E0E0BFE6B95A
:10015400EDB9E6BF2297E5E0E883E0E0E983939A0E
:10016400EFEFF0E0E415F50514F444245524E9E038
:10017400F0E0E415F50534F09098919A929A45BA16
:1001840031D01FC0D20196DF9098919A929A65BAA5
:1001940029D0909A919A929A909A9198929A85BA23
:1001A40021D0909A919A929AE4E6F0E0E415F5054C
:1001B40044F4909A919A9298A5BA14D0909A919AEC
:1001C400929A10D0F20131962F012296C3CFFFCF1D
:1001D400EAE0F0E00E9419010895EAE0F0E00E94EC
:1001E4001E010895A881B9810C94F800109639F085
:1001F40080ED97E00197F1F7A8951197C9F7089555
:10020400F195E195F04008950024112490E1AA0F9E
:10021400BB1F001C111C0E1A1F0A18F40E0E1F1E01
:1002240001C0A1609A9599F7FD01D001089512D0FB
:10023400EBDF0EF4E5DF0895E894B7FF04C0A09562
:10024400B09511966894F7FDDBDFDEDFFD010EF457
:10025400D7DF0895E894F7FF02C0D2DF6894B7FFB0
:1002640006C0A095B095119600F8039400FA08957D
:00000001FF
