:100000000C9441000C9400000C9400000C9400002F
:100010000C9400000C9400000C9400000C94000060
:100020000C9400000C9400000C9400000C94000050
:100030000C9400000C9400000C9400000C94000040
:100040000C9400000C9400000C9400000C94000030
:100050000C94000020003132333435363738392AD9
:1000600030230000003F80C00100050054000C0058
:100070006001560004006C0162000200700166001D
:100080000000F894EE27ECBBF1E0FBBFEBBFE5BF4F
:100090008DE0A2E0BB27ED938A95E9F780E094E03C
:1000A000A0E6ED930197E9F7E8E6F0E085919591F8
:1000B000009761F0A591B59105901590BF01F001F1
:1000C00005900D920197E1F7FB01F0CFEFE5EDBF51
:1000D000E4E0EEBFC0E6D1E00C94CD00C398C49A32
:1000E00007D1B09905C050906001B09BFECF0DC004
:1000F000B19905C050906101B19BFECF06C0B29985
:1001000004C050906201B29BFECFC39AC498F0D055
:10011000B09905C050906301B09BFECF0DC0B1995E
:1001200005C050906401B19BFECF06C0B29904C0D7
:1001300050906501B29BFECFC39AC49AC598C69AE7
:10014000E6D0B09905C050906601B09BFECF0DC0BF
:10015000B19905C050906701B19BFECF06C0B2991E
:1001600004C050906801B29BFECFC39AC49AC59A4E
:10017000C698CDD0B09904C050906901B19BFECF14
:10018000B19904C050906A01B19BFECFB29904C0EE
:1001900050906B01B19BFECF0895E0E0EABBEBBB52
:1001A000E8EFE7BBE0E0E8BBE4BBE5BBE1BBE2BBFB
:1001B000E3BFE2BFECBFEFBDEEBDEDBDECBDE7BD03
:1001C000E6BDEBBDEABDE9BDE8BDE2BDE5BDE4BD10
:1001D000E3BDE9BFE5BFE4BFEAB9E0E8E8B9E0E0C4
:1001E000E0BFE6B9EDB9E6BFA0E157D0C09AC19A29
:1001F000C29A74DFE0E0EA93A0E024D0A52D39D0C4
:10020000F8CFFFCFAA93E5B3EF70AE2FE881E07F80
:10021000EA2BE5BB8DE08A95F1F7929A8DE08A95FD
:10022000F1F792988DE08A95F1F760C0AA93A881C2
:10023000E9DFE881E295E883A881E4DF85E88A9533
:10024000F1F754C0AA93E881F0E0E059FE4FE08155
:10025000A981AE0FEBDF4980788022960895A2E055
:1002600063D0ACE0E3DFA1E05FD0E0E07E2E4E2E75
:100270000895AA93A881AA3011F0461440F0E0E056
:10028000EA937394A72DDEDFA881AA3079F1439415
:10029000909AA881CBDF909829C0AA93E4B3E06F2D
:1002A000E4BB8A9A889A899A9298909891986880E3
:1002B000E881E058E0937201E881E054E093730133
:1002C000A4E1B0E00E94A00134D033D032D0A0E24B
:1002D00099DF88EC90E00197F1F7A8E2A7DFA4E0AE
:1002E000A5DFA5E8A3DFA6E0A1DFB9DF2196089589
:1002F000C59AC69AE0916C01F0916D0160916E0112
:1003000070916F010E94B301DF010C94A001E09194
:100310006C01F0916D0160916E0170916F010E940E
:10032000B301DF010C94A00181DFA3E0B0E00C94E5
:10033000A001A0E367DF88EC90E00197F1F7089552
:10034000109639F080ED97E00197F1F7A895119795
:10035000C9F7089550E8072E0522660F771F752705
:10036000550F67950895689401C0E8945F93F2DF94
:10037000703818F07F3F08F42DC056E1571BAAF4DF
:10038000519558300EF4593030F0EFEFFFEF6FEF2A
:100390007FE777F91AC077275523B9F0EE0FFF1FD3
:1003A000661F771F5A95D1F710C07727583028F06D
:1003B000EF2FF62F672F5850F9CF552331F0769550
:1003C0006795F795E7955A95D1F700200AF408D07C
:1003D0005F910895EE27FF27662777275F9108959D
:1003E000F09560957095E195FF4F6F4F7F4F0895A1
:00000001FF
