:080000000C943D000C9400007B
:100008000C9400000C9400000C9400000C94000068
:100018000C9400000C9400000C9400000C94000058
:100028000C9400000C9400000C9400000C94000048
:100038000C9400000C9400000C9400000C94000038
:100048000C9400000C9400000C9400001027E803A6
:1000580064000A0001000010000110000100010006
:100068002D4E414E00494E460000010060016600D9
:100078000000F894EE27ECBBF1E0FBBFEBBFE5BF57
:100088008DE0A2E0BB27ED938A95E9F780E094E044
:10009800A0E6ED930197E9F7E2E7F0E08591959105
:1000A800009761F0A591B59105901590BF01F001F9
:1000B80005900D920197E1F7FB01F0CFEFE5EDBF59
:1000C800E4E0EEBFC0E6D1E00C946A00E0E0EABBF1
:1000D800EBBBE7BBE8BBEFEFE4BBE0E0E5BBE1BBB4
:1000E800E2BBE3BFE2BFECBFEFBDEEBDEDBDECBDD3
:1000F800E7BDE6BDEBBDEABDE9BDE8BDE2BDE5BDD6
:10010800E4BDE3BDE9BFE5BFE4BFEAB9E0E8E8B9AB
:10011800E0E0E0BFE6B9EDB9E6BF2297E0E0E883AA
:10012800E983A881B981A030E1E0BE0764F4E881E1
:10013800E5BBA8ECB0E00E94AA00E881F9813196FD
:10014800E883F983EECF2296E8CFFFCF109639F0F7
:1001580080ED97E00197F1F7A8951197C9F70895F1
:00000001FF
