:0C0000000C942A000C9400000C940000EA
:10000C000C9400000C9400000C9400000C94000064
:10001C000C9400000C9400000C9400000C94000054
:10002C000C9400000C9400000C9400000C94000044
:10003C000C9400000C9400000C9400000C94000034
:10004C000C9400000C940000F894EE27ECBBF1E04B
:10005C00FBBFEBBFE5BF8DE0A2E0BB27ED938A951C
:10006C00E9F780E094E0A0E6ED930197E9F7EFE57E
:10007C00EDBFE4E0EEBFC0E6D1E00C944500E0E05B
:10008C00EABBEBBBE7BBE8BBEFEFE4BBE0E0E5BBF7
:10009C00E1BBE2BBE3BFE2BFECBFEFBDEEBDEDBD2C
:1000AC00ECBDE7BDE6BDEBBDEABDE9BDE8BDE2BD1B
:1000BC00E5BDE4BDE3BDE9BFE5BFE4BFEAB9E0E8F7
:1000CC00E8B9E0E0E0BFE6B9EDB9E6BF2297ECE3B2
:1000DC00E883E0E0E983A89AAA9AAC9AAE9A12D087
:1000EC00A898AA98AC98AE980DD0A99AAB9AAD9A4C
:1000FC00AF9A08D0A998AB98AD98AF9803D0229638
:10010C00E5CFFFCFA881B9810C948C00109639F003
:10011C0080ED97E00197F1F7A8951197C9F708952D
:00000001FF
