:100000000C9439000C9400000C9400000C94000037
:100010000C9400000C9400000C9400000C94000060
:100020000C9400000C9400000C9400000C94000050
:100030000C9400000C9400000C9400000C94000040
:100040000C9400000C9400000C9400000C94000030
:100050000C94000000000000803F0000003F020000
:100060000400540004006001560004006C015A00B2
:100070000000F894EE27ECBBF1E0FBBFEBBFE5BF5F
:100080008DE0A2E0BB27ED938A95E9F780E094E04C
:10009000A0E6ED930197E9F7EEE5F0E08591959103
:1000A000009761F0A591B59105901590BF01F00101
:1000B00005900D920197E1F7FB01F0CFEFE5EDBF61
:1000C000E4E0EEBFC0E6D1E00C940101909A919A71
:1000D000929A939A08959098919A929A939AE0910D
:1000E0006401C1D09198929A939AE0916601BBD035
:1000F000919A9298939AE0916801B5D0919A929AC8
:100100009398E0916A01E5BBE0916001F091610193
:100110006091620170916301B7D0D8DF0895F20158
:1001200031962F01E3E0F0E0E415F50514F44424E2
:1001300055240895C398C49AACD0B09907C0B4D0E0
:10014000E1E0F0E0B9D0B09BFECF11C0B19907C09B
:10015000ABD0E2E0F0E0B0D0B19BFECF08C0B299E6
:1001600006C0A2D0E3E0F0E0A7D0B29BFECFC39AD6
:10017000C4988FD0B09907C097D0E4E0F0E09CD04D
:10018000B09BFECF11C0B19907C08ED0E5E0F0E082
:1001900093D0B19BFECF08C0B29906C085D0E6E0EF
:1001A000F0E08AD0B29BFECFC39AC49AC598C69A93
:1001B00086D0B09907C078D0E7E0F0E07DD0B09B62
:1001C000FECF11C0B19907C06FD0E8E0F0E074D065
:1001D000B19BFECF08C0B29906C066D0E9E0F0E05E
:1001E0006BD0B29BFECFC39AC49AC59AC69867D00B
:1001F000B19906C059D0E0E0F0E05ED0B19BFECFEF
:100200000895E0E0EABBEBBBE8EFE7BBE0E0E8BB6A
:10021000EFEFE4BBE0E0E5BBEFEFE1BBE0E0E2BB2A
:10022000E3BFE2BFECBFEFBDEEBDEDBDECBDE7BD92
:10023000E6BDEBBDEABDE9BDE8BDE2BDE5BDE4BD9F
:10024000E3BDE9BFE5BFE4BFEAB9E0E8E8B9E0E053
:10025000E0BFE6B9EDB9E6BFC09AC19AC29A3BDFEA
:1002600069DFFDCFFFCFE5BBE0916001F091610157
:1002700060916201709163010E947B01DF010E9425
:10028000680124DF909A08950E947B01DF010C949D
:100290006801C59AC69AE0916C01F0916D01609178
:1002A0006E0170916F01F0CFF201A4E6B1E0EE0FA4
:1002B000FF1FAE0FBF1F0895ED93FC9330CFE09169
:1002C0006C01F0916D0160916E0170916F01DCCF56
:1002D000109639F080ED97E00197F1F7A895119706
:1002E000C9F7089550E8072E0522660F771F752776
:1002F000550F67950895689401C0E8945F93F2DF05
:10030000703818F07F3F08F42DC056E1571BAAF44F
:10031000519558300EF4593030F0EFEFFFEF6FEF9A
:100320007FE777F91AC077275523B9F0EE0FFF1F43
:10033000661F771F5A95D1F710C07727583028F0DD
:10034000EF2FF62F672F5850F9CF552331F07695C0
:100350006795F795E7955A95D1F700200AF408D0EC
:100360005F910895EE27FF27662777275F9108950D
:10037000F09560957095E195FF4F6F4F7F4F089511
:00000001FF
