:040000000C942A0032
:100004000C9400000C9400000C9400000C9400006C
:100014000C9400000C9400000C9400000C9400005C
:100024000C9400000C9400000C9400000C9400004C
:100034000C9400000C9400000C9400000C9400003C
:100044000C9400000C9400000C9400000C9400002C
:10005400F894EE27ECBBF1E0FBBFEBBFE5BF8DE00E
:10006400A2E0BB27ED938A95E9F780E094E0A0E64F
:10007400ED930197E9F7EFE5EDBFE4E0EEBFC0E6ED
:10008400D1E00C944500E0E0EABBEBBBE7BBE8BB86
:10009400EFEFE4BBE0E0E5BBE1BBE2BBE3BFE2BF03
:1000A400ECBFEFBDEEBDEDBDECBDE7BDE6BDEBBD08
:1000B400EABDE9BDE8BDE2BDE5BDE4BDE3BDE9BF20
:1000C400E5BFE4BFEAB9E0E8E8B9E0E0E0BFE6B9DB
:1000D400EDB9E6BF2297EAE0E883E0E0E98320D0C7
:1000E4001FD0A99A27D0A99825D0AA9A23D0AA9834
:1000F40021D0AB9A1FD0AB981DD0AC9A1BD0AC9832
:1001040019D0AD9A17D0AD9815D0AE9A13D0AE9839
:1001140011D0AF9A0FD0AF980DD02296DBCFFFCF7E
:10012400A89AA881B9810E94A000A898A881B98141
:100134000C94A000A881B9810C94A000109639F009
:1001440080ED97E00197F1F7A8951197C9F7089505
:00000001FF
