:020000000C945E
:100002002A000C9400000C9400000C9400000C9444
:1000120000000C9400000C9400000C9400000C945E
:1000220000000C9400000C9400000C9400000C944E
:1000320000000C9400000C9400000C9400000C943E
:1000420000000C9400000C9400000C9400000C942E
:100052000000F894EE27ECBBF1E0FBBFEBBFE5BF7D
:100062008DE0A2E0BB27ED938A95E9F780E094E06A
:10007200A0E6ED930197E9F7EFE5EDBFE4E0EEBF0F
:10008200C0E6D1E00C944A00909A919A929A939A7F
:1000920008952897E1E0E883E0E0E983E3E0EA837A
:1000A200E0E0EB83E7E0EC83E0E0ED83E7E0EE8382
:1000B200E0E0EF8302E010E0EABBEBBBE7BBE8BBAA
:1000C200EFEFE4BBE0E0E5BBEFEFE1BBE0E0E2BB7A
:1000D200E3BFE2BFECBFEFBDEEBDEDBDECBDE7BDE2
:1000E200E6BDEBBDEABDE9BDE8BDE2BDE5BDE4BDEF
:1000F200E3BDE9BFE5BFE4BFEAB9E0E8E8B9E0E0A3
:10010200E0BFE6B9EDB9E6BF9098919A929A939AB8
:10011200E88115D09198929A939AEA8110D0919A97
:100122009298939AEC810BD0919A929A9398EE813D
:10013200E5BBD8010E94A700A7DFE6CFFFCFE5BB52
:10014200D8010E94A700A0DF909A0895109639F076
:1001520080ED97E00197F1F7A8951197C9F70895F7
:00000001FF
